:020000040800F2
:1000000078E50020890100088D0100088F010008B3
:10001000910100089301000895010008000000000C
:1000200000000000000000000000000001010008C6
:100030009901000800000000310100080149000892
:100040009F0100089F0100089F0100089F01000810
:100050009F0100089F0100089F0100089F01000800
:100060009F0100089F0100089F0100089F010008F0
:100070009F0100089F0100089F0100089F010008E0
:100080009F0100089F0100089F0100089F010008D0
:100090009F0100089F0100089F0100089F010008C0
:1000A0009F0100089F0100089F0100089F010008B0
:1000B0009F0100089F0100089F0100089F010008A0
:1000C0009F0100089F0100089F0100089F01000890
:1000D0009F0100089F010008413100089F010008AE
:1000E0009F0100089F0100089F010008DFF80CD065
:1000F00005F03CFC00480047EB30000878E50020A4
:10010000194B19680868B0E8F00F80F309884FF0C0
:10011000000080F311884EF00D0E704700000000C3
:1001200002480068006880F3088800DF08ED00E0FE
:10013000EFF309800C4B1A6820E9F00F106008B546
:100140004FF0BF0080F3118805F069F84FF0000010
:1001500080F31188BDE8084019680868B0E8F00F1E
:1001600080F30988704700BFA800002001B44FF059
:10017000BF0080F3118801BC704701B44FF000004C
:1001800080F3118801BC704705480047FEE7FEE791
:10019000FEE7FEE7FEE7FEE7FEE7FEE7FEE7FEE737
:1001A000ED00000870B547491220086047484649ED
:1001B00041604749C1624749016001688903FCD534
:1001C000016841F08051016001688900FCD5016837
:1001D00041F08061016001680901FCD5016841F0CE
:1001E0008071016001688901FCD54168C1F381011A
:1001F0000229FAD14468C16A374D14F0030205D0D0
:100200003648012A05D0022A31D104E0344868601A
:100210002DE068602BE0220CD20720D00A0CD20718
:100220000DD0C1F30312521CB0FBF2F0C1F3032254
:100230000B2A02D2921C504301E0121D504311F0D0
:100240000E0F05D001F00F01491CB0FBF1F007E0E3
:10025000610CC90704D000EBD070401000E02148C9
:10026000C4F383410D290BD0891C484368602006E4
:1002700010D5C4F302116868491CC84028600BE01F
:1002800005F093FA0022184B05F01DFA05F0ABFAC1
:100290006860ECE7686828602868A860610506D592
:1002A000C4F30121491C20FA01F1E96000E0E86093
:1002B000A10405D5C4F3C121491CC840286170BD03
:1002C000286170BD0020024002841D0B0010024016
:1002D00044860100820001000000002040787D017A
:1002E00000127A0000093D0000001A4010B59C4938
:1002F000884209D10121042000F0CFFA0021BDE895
:100300001040042000F0C9BA9649884209D1012161
:10031000082000F0C2FA0021BDE81040082000F0DB
:10032000BCBA9149884209D10121102000F0B5FAE8
:100330000021BDE81040102000F0AFBA8B49884280
:1003400009D10121202000F0A8FA0021BDE81040C9
:10035000202000F0A2BA8649884209D1012140201C
:1003600000F09BFA0021BDE81040402000F095BA53
:100370008049884209D10121802000F08EFA0021B5
:10038000BDE81040802000F088BA7B4988420AD13D
:1003900084150121204600F080FA2046BDE8104077
:1003A000002100F07ABA10BD10B50121084600F016
:1003B00074FA0021BDE81040012000F06EBA2DE96A
:1003C000F0410022CC7804F00F03E40601D58C78CC
:1003D00023430C784FF00F0714F0FF0F4FF0010C80
:1003E0001CD005680CFA02F40E882640A64211D1F2
:1003F000960007FA06F825EA080503FA06F848EA1F
:100400000505CE78282E02D0482E02D002E04461A5
:1004100000E00461521C082AE4D305600A88FF2A20
:100420001ED94568002202F108060CFA06F40E886F
:100430002640A64210D1960007FA06F825EA0805DC
:1004400003FA06F848EA0505CE78282E00D1446163
:10045000CE78482E00D10461521C082AE3D34560AF
:10046000BDE8F0814FF6FF71018002218170042107
:10047000C17070470246002092680A4200D00120F5
:100480007047806880B2704702460020D2680A42F6
:1004900000D001207047C06880B27047016170478A
:1004A00041617047002A01D0016170474161704786
:1004B000C160704741F480328261816182618169EB
:1004C0008069704710B52D4B1A684FF68074224032
:1004D00042EA00100843186010BD2949C8617047FE
:1004E000F0B5264C002801DAE36900E06368C0F348
:1004F0000346420D120185B2C0F301579540032F08
:1005000007D0C2020CD50322B240934343F070627D
:1005100009E023F07062636823F07063636002E0B7
:10052000AB4343F0706201B12A43002801DAE26173
:10053000F0BD6260F0BD10B58A07120F0F23934023
:1005400021F003040D4921448C689C438C608B6826
:10055000904003438B6010BD0949DC31086070474F
:1005600000080140000C014000100140001401404F
:1005700000180140001C0140002001400000014023
:1005800000002042DD48016841F00101016041683E
:10059000DB4A114041600168DA4A1140016001689C
:1005A00021F480210160416821F4FE01416001686D
:1005B00021F0A05101604FF47F0181600021C162F0
:1005C0007047CE490A6822F480320A600A6822F431
:1005D00080220A60B0F5803F07D0B0F5802F03D1AC
:1005E000086840F4A02008607047086840F4803034
:1005F00008607047034600205909C04A01290AD003
:1006000002290AD0516A03F01F02012393400B42D2
:1006100000D0012070471168F5E7116AF3E718B5BB
:10062000002000904FF4A0643120FFF7E3FF009911
:10063000491C00910099A14201D00028F4D031203A
:10064000FFF7D8FF08B1012018BD002018BDAB4A44
:10065000116821F0F80141EAC00010607047AA4912
:1006600008607047A54B5A6822F47412084310437F
:1006700058607047A4490866704710B59F4BDA6A06
:10068000A24C224008431043D86210BD9B4AD16A55
:1006900021F0F0010143D1627047984AD16A21F4F8
:1006A00070610143D1627047974988667047934AE9
:1006B000D16A21F470410143D162704792490867C1
:1006C00070478E4A516821F0030101435160704721
:1006D0008A48406800F00C007047884A516821F051
:1006E000F001014351607047844A516821F4E06190
:1006F000014351607047814A516821F4605141EAD9
:10070000C000506070477D4A002903D0517A0143F0
:1007100051727047517A8143517270477A49D8318A
:1007200008607047754A516821F4404101435160A7
:1007300070477749086070477549091D0860704720
:100740006E49002220310A7001F82029012805D0C5
:10075000042802D1052081F820007047012081F88B
:10076000200070476B490860704764490A6A024379
:100770000A627047674944390860704770B55F4B3B
:10078000596801F00C01644A002928D0634C0429FF
:1007900027D0082927D00260596801F0F001090923
:1007A0005F4A545C0168E14041605C6804F4E064C5
:1007B000240A145D21FA04F484605C6804F4605433
:1007C000E40A125DD140C1605A6802F44042920BC3
:1007D000534B1B1F9A5CB1FBF2F1016170BD0260CB
:1007E000DAE70460D8E7596801F470115A6802F436
:1007F0008032890C0D2901D0891C00E00621BAB194
:10080000DA6A02F48035DA6A02F00F02521C9DB1F6
:10081000DD6AC5F303156D1CDE6AC6F30326B61C3C
:10082000B4FBF5F47443B4FBF2F24A430260B3E75D
:100830003C4A51430160AFE7B4FBF2F24A43026025
:10084000AAE72E4A002903D051690143516170473C
:100850005169814351617047284A002903D0916949
:100860000143916170479169814391617047234AC7
:10087000002903D0D1690143D1617047D169814317
:10088000D16170471D4A002903D0916A01439162EA
:100890007047916A814391627047184A002903D0DA
:1008A000D1680143D1607047D1688143D1607047FE
:1008B000124A002903D0116901431161704711697F
:1008C00081431161704713494039086070470E49F0
:1008D000C86470470949C87170470848416A41F0C7
:1008E00080714162704701460020044A92680A42C2
:1008F00000D0012070470149887270470010024003
:100900000000FFF0FFFFF6FE00004242F0FFFEFF96
:10091000C40542428004424200127A0040787D01C0
:100920001800002000093D001FB50020ADF80400AC
:100930004BF6FF71ADF80610ADF808004FF480607B
:10094000ADF80A000001ADF80C00FE4800906946C1
:10095000FD4800F08FFD1FBD2DE9F05F81468B46FD
:1009600092460025F84F0121384600F074FE002120
:10097000384600F070FEF54C40F6FF762660012107
:10098000384600F0E0FDFFF7CFFF0121384600F0C8
:10099000FEFDDFF8BC8304E02068401E2060401CA0
:1009A0000DD04146384600F0BCFE0028F4D0B846D1
:1009B00000224946404600F03DFEE64F07E0022097
:1009C000BDE8F09F2168491E2160491C0DD03946C1
:1009D000404600F0A6FE0028F4D05946404600F0FC
:1009E00024FE2660DB4EB61C06E00220E8E7216804
:1009F000491E2160491C0AD03146404600F091FE54
:100A00000028F4D05146404600F00FFE06E00220D8
:100A1000D6E72268521E2260521C0BD03146404657
:100A200000F07FFE0028F4D00121404600F0BBFD1D
:100A3000E8B2C5E70220C3E72DE9F04705460F46B7
:100A4000DFF804930021484600F07DFD012148466F
:100A500000F001FE0021484600F0FDFDFFF764FFB5
:100A60000121484600F093FDB84C40F6FF78C4F8E9
:100A70000080B74E04E02268521E2260521C13D040
:100A80003146484600F04DFE0028F4D0002148468B
:100A900000F095FD00222946484600F0CBFDC4F841
:100AA0000080DFF8B08207E00220BDE8F08722680E
:100AB000521E2260521C0FD04146484600F031FEC3
:100AC0000028F4D039464F46384600F0AEFDDFF836
:100AD000848208F1020806E00220E6E72268521E3E
:100AE0002260521C0AD04146384600F01AFE002807
:100AF000F4D00121384600F04AFD06E00220D4E798
:100B00002268521E2260521C0DD03146384600F039
:100B100008FE0028F4D001222946384600F08AFD5C
:100B20008B4D6D1C06E00220BFE72268521E22603A
:100B3000521C08D02946384600F0F3FD0028F4D0B6
:100B4000834D3F3506E00220AFE72068401E20605D
:100B5000401C13D02946384600F0E3FD0028F4D0AD
:100B60000121384600F01FFD384600F060FD0446C4
:100B70000121384600F023FD204696E7022094E745
:100B800008B50020009004218820FFF755FF009051
:100B90009DF8000020F0090000909DF8002004213D
:100BA0008820FFF7D9FE012260218820FFF7D4FEBC
:100BB000032260218820FFF7CFFE002008BD2DE929
:100BC000F04180460D46164616214046FFF734FF99
:100BD000074615214046FFF72FFF27EA050220EAC6
:100BE0000504F00700D02A43B00700D52C43162196
:100BF0004046FFF7B1FE224615214046FFF7ACFE06
:100C00000020BDE8F08170B506460C461546172158
:100C10003046FFF711FF15B140EA040201E020EA77
:100C2000040217213046FFF797FE002070BD70B513
:100C300006460C46154613213046FFF7FDFE15B15A
:100C400040EA040201E020EA040213213046FFF7E3
:100C500083FE002070BD10B5C20701D0822303E0DF
:100C600010F0050F08D0882341B102461021184624
:100C7000FFF772FE002010BD032010BD02461121B7
:100C80001846FFF769FEF5E770B506460C461546AF
:100C900004213046FFF7D0FE15B120EA040201E03E
:100CA00040EA040204213046FFF756FE002070BDE2
:100CB00001B581B0284901984843009002E00098AE
:100CC000401E009000980028F9D10CBD10B50421F9
:100CD0008220FFF7B1FE20F0030204218220FFF7FB
:100CE0003BFE0A218220FFF7A7FE40F007020A21FF
:100CF0008220FFF731FE492220218220FFF72CFEBF
:100D00000220FFF7D5FF012221218220FFF724FED8
:100D100017218220FFF790FE20F01E02172182206B
:100D2000FFF71AFE9A2241218220FFF715FE0122C9
:100D30004A218220FFF710FE01224B218220FFF77B
:100D40000BFE0BE0801A0600005400402800002033
:100D50000100030082000700A086010000224B2151
:100D60008220FFF7F9FD012256218220FFF7F4FDD2
:100D7000012258218220FFF7EFFD0122402182202D
:100D8000FFF7EAFDFF220B218220FFF7E5FDFF4977
:100D90000020C88088804880088010BD10B50446B7
:100DA000022203212046FFF7D7FD0220FFF780FF34
:100DB000002203212046FFF7CFFD002010BD70B5B3
:100DC000054600212846FFF737FE4FF6FF7101EA7E
:100DD000002401212846FFF72FFE204370BD10B5E7
:100DE000FFF7EDFFA0F50061113907D0E748103893
:100DF000006808B1012010BD022010BD002010BD08
:100E000038B501214C052046FFF731FD01210920AD
:100E1000FFF722FD01212046FFF74AFD0021204671
:100E2000FFF746FDC020ADF8000001208DF802005C
:100E30001C208DF80300D64C69462046FFF7BFFA08
:100E40004FF48041ADF8001048218DF80310694639
:100E50002046FFF7B4FA0E210120FFF76CFB38BDE6
:100E600010B5FFF7CDFF8220FFF7B9FF08B10420CE
:100E700010BD8820FFF7B3FF08B1052010BD822008
:100E8000FFF78CFF8820FFF789FF012207218220CE
:100E9000FFF7FAFE012211468220FFF7C8FE012269
:100EA00011468220FFF7AFFE00210120FFF7D3FE9D
:100EB00000220C218820FFF7BAFE01220C21882095
:100EC000FFF7A1FE03220C218820FFF778FEFFF731
:100ED000FDFE01220D218820FFF7D6FE012205210B
:100EE0008820FFF7A4FE012205218820FFF78BFE52
:100EF00000210420FFF7AFFE00210120FFF7ABFE29
:100F00000022F8218820FFF792FE0122F821882094
:100F1000FFF779FE0322F8218820FFF750FEFFF744
:100F20002FFE002010BD1FB501210920FFF794FC02
:100F30004FF48044ADF80C4004208DF80F0003A955
:100F40009348FFF73CFA0E210120FFF7F4FA0094D2
:100F500000208DF8040010208DF8050001248DF884
:100F60000640684600F034FC28208DF808000F2069
:100F70008DF809008DF80A008DF80B4002A800F0EA
:100F800094FC1FBD70B506460C4615460A21304636
:100F9000FFF752FD15B140EA040201E020EA040225
:100FA0000A213046FFF7D8FC002070BD70B5064618
:100FB0000D46002409213046FFF73EFD05B101240E
:100FC000224609213046FFF7C7FC002070BD70B5EE
:100FD00006460C4615460C213046FFF72DFD15B18F
:100FE00040EA040201E020EA04020C213046FFF747
:100FF000B3FC002070BD70B504460D460921822067
:10100000FFF71AFD20F006002C4344EA00020921F4
:101010008220FFF7A1FC09218820FFF70DFD20F0B9
:10102000060044EA000209218820FFF795FC002011
:1010300070BD10B5044600210420FFF7DCFF6007F7
:101040001AD501218820FFF7B1FF0122F82188205D
:10105000FFF7BDFF012280218820FFF793FF0D21BC
:101060008820FFF7E9FC0122F8218820FFF7AFFF75
:101070000D218820FFF7E0FCA0071AD5012182206E
:10108000FFF794FF01220C218220FFF7A0FF01222D
:1010900080218220FFF776FF0D218220FFF7CCFC14
:1010A00001220C218220FFF792FF0D218220FFF701
:1010B000C3FCE0070CD001218220FFF777FF01225B
:1010C00007218220FFF75EFF0D218220FFF7B4FC8D
:1010D000FFF729FF002010BD10B5044614F00C0FD7
:1010E00001D0822003E014F0F80F07D088201221ED
:1010F000FFF7A2FC204203D0012010BD032010BD49
:10110000002010BD10B512218820FFF795FC1F218B
:10111000B1EBD00F01D1002010BD010601D4012098
:1011200010BD410601D4022010BD810601D4032068
:1011300010BDC10601D4042010BD000701D4052054
:1011400010BD002010BD2DE9F84F07468946022446
:1011500000200090DFF83C800021404600F0F3F9C9
:101160000121404600F077FA0021404600F073FA72
:10117000FFF7DAFB0121404600F009FA034E40F682
:10118000FF70103E3060044D0DE00000380000207C
:10119000000C014000540040010003003168491E6A
:1011A0003160491C0DD02946404600F0BAFA0028AB
:1011B000F4D000223946404600F03CFADFF874A231
:1011C00007E00220BDE8F88F3168491E3160491CF4
:1011D00013D05146404600F0A4FA0028F4D0012173
:1011E000404600F0B0F909F0FF01404600F01DFA5A
:1011F000DFF8409209F1020906E00220E2E73168D7
:10120000491E3160491C0AD04946404600F089FA1F
:101210000028F4D00121404600F0B9F906E0022090
:10122000D0E73168491E3160491C0CD02946404640
:1012300000F077FA0028F4D001223946404600F049
:10124000F9F97D4D06E00220BCE73268521E32609B
:10125000521C09D02946404600F063FA0028F4D019
:10126000754E6D463E3618E00220ABE7012C07D1E3
:101270000021404600F0A3F90121404600F093F917
:101280003146404600F04DFA38B1404600F0CFF903
:10129000291901F8010C641EE4B2002CE6D10121E9
:1012A000404600F08CF900988CE710B5512182205F
:1012B000FFF749FF80B210BD10B54D218220FFF726
:1012C00042FFC0EB001040F31320C0EB0010000100
:1012D000D92190FBF1F00C38002800DC002080B20E
:1012E00010BD10B54F218220FFF72DFF00EB8000CD
:1012F00040F3931040011D2190FBF1F011380028BC
:1013000000DC002080B210BD70B540218220FFF7C4
:1013100093FB4A4E00F080003080A6F11005A8B182
:10132000FFF7DFFF0446FFF7C7FF69688C4201D96A
:10133000621A00E00A1BA968884201D9411A00E03C
:10134000091A1144052901D96C60A860A888708029
:101350002889B080FFF7A9FFF08001224B2182206D
:10136000FFF7FAFA00224B218220FFF7F5FA334803
:1013700070BD10B5032260218820FFF7EDFA6121CE
:101380008820FFF759FB80072C4C800D103CE06053
:1013900062218820FFF750FBE1680843E060E068C5
:1013A00040F6E441484340F2EF21B0FBF1F0E06049
:1013B000E068401D0A21B0FBF1F0E060E06810BD7C
:1013C00038B50C46002200920B21FFF735FB009048
:1013D0009DF80000204201D0012038BD002038BD1A
:1013E00010B50A460B21FFF7B7FA002010BD10B563
:1013F0000C460D21FFF720FB204201D0012010BD3B
:10140000002010BD10B50C4622460D21FFF7A4FAAE
:10141000224614218820FFF79FFA224615218820B2
:10142000FFF79AFA224616218820FFF795FA002046
:1014300010BD0000820007000200030038000020F9
:1014400010B5D94988420AD101214C052046FFF741
:101450002FFA2046BDE810400021FFF729BA0121EC
:101460008C052046FFF724FA2046BDE810400021F5
:10147000FFF71EBA70B586B004460D46A08820F06E
:101480003F0601A8FFF77AF90398C849B0FBF1F1CC
:1014900089B20E43A680228822F001022280C44B2A
:1014A0002A689A4209D85200B0FBF2F080B20428B0
:1014B00000D20420491C218423E0EB88A3F53F4699
:1014C000FF3E0BD002EBC20303EB0212B0FBF2F0C3
:1014D00080B240F48040020506D007E002EB4202F1
:1014E000B0FBF2F080B2F6E740F0010040F40040BB
:1014F0004FF4967251434FF47A72B1FBF2F1491CEA
:101500002184A083208840F00100208020884FF6AD
:10151000F5310840A9886A89114301432180A889CF
:1015200029890843208106B070BD41F288310160ED
:10153000002181804BF6FF72C280018141814FF40E
:10154000804181817047002904D0018841F0010168
:1015500001807047018821F0010101807047002956
:1015600004D0818841F4006181807047818821F432
:10157000006181807047002904D0818841F4805146
:1015800081807047818821F48051818070470029D3
:1015900004D0018841F4807101807047018821F4F2
:1015A000807101807047002904D0018841F40071E6
:1015B00001807047018821F4007101807047002983
:1015C00004D0018841F4806101807047018821F4D2
:1015D000806101807047828922F0FE0201F0FE01E5
:1015E000114381817047002904D0818941F00101B4
:1015F00081817047818921F0010181817047002933
:1016000004D0018841F0400101807047018821F039
:10161000400101807047002A03D082880A438280FB
:10162000704782888A438280704701827047008AAF
:10163000C0B27047002A02D041F0010101E001F080
:10164000FE010182704708B50090009808440090A0
:101650000098008808BD002904D0018841F40041A9
:10166000018070470188C1F30E0101807047B1F518
:10167000005F04D0018821F4005101807047018887
:1016800041F4005101807047002904D0018841F4E1
:10169000805101807047018821F48051018070479A
:1016A000B1F5006F04D0018821F40061018070471A
:1016B000018841F4006101807047002904D001884D
:1016C00041F0200101807047018821F02001018054
:1016D0007047008B000A7047002904D0018841F050
:1016E000100101807047018821F0100101807047CE
:1016F000002904D0018821F0800101807047018811
:1017000041F0800101807047B1F5804F04D0818B9A
:1017100021F4804181837047818B41F48041818332
:101720007047034600209A8A1B8B1B041A4322F041
:101730007F42914300D101207047818A008B0004D1
:10174000014321F07F4070470CB502460020009213
:101750000A0F019221F07F41019A002A03D0009ADA
:101760001432009203E0090C009A18320092009A99
:1017700012680A4200D001200CBDC9438182704723
:1017800010B502460020938801F0E06403EA144398
:1017900021F07F41928A0A4202D0002B00D0012022
:1017A00010BDC943818270470054004040420F0081
:1017B000A0860100384900200860091D0860091D45
:1017C0000860091D086034493448143108607047C6
:1017D00030B5314A83790168002B2AD013688B43D6
:1017E0001360111D0B680468A3430B600179114459
:1017F0000B68046823430B60274C08342168036896
:1018000099432160231D19680568A943196041792E
:10181000102905D011440A68006802430A6030BDEF
:10182000216802681143216019680068014319604A
:1018300030BD0079104402688A43026030BD002147
:10184000016001710C22427181717047124910319F
:101850000A6802430A607047014600200E4A1432AB
:1018600012680A4200D0012070470B491431086009
:10187000704701460020084A12680A40064B14339C
:101880001B680B4202D0002A00D001207047024999
:10189000143108607047000000040140FFFF0F0092
:1018A0002A4908432A490860704770B50F23C27857
:1018B00001260178002A1ED0254A126802F4E0624F
:1018C000C2F5E062120AC2F10404D3404578A54093
:1018D00082781A402A43120101F1E02181F80024A4
:1018E000007800F01F018E404009800000F1E020E8
:1018F000C0F8006170BD01F01F00864048098000FB
:1019000000F1E020C0F8806170BD124A114001432F
:101910000F48001F016070470D4A121D002903D0B7
:10192000116801431160704711688143116070476D
:101930004FF0E021042804D0086920F00400086179
:101940007047086940F00400086170470000FA051C
:101950000CED00E080FFFF1F10B5E14988420AD17D
:1019600001218C032046FEF798FF2046BDE8104079
:101970000021FEF792BFDB4988420AD101214C04C5
:101980002046FEF795FF2046BDE810400021FEF7F7
:101990008FBFD54988420AD101218C042046FEF729
:1019A00087FF2046BDE810400021FEF781BFCF49E8
:1019B00088420AD10121CC042046FEF779FF204657
:1019C000BDE810400021FEF773BFC94988420AD123
:1019D00001210C052046FEF76BFF2046BDE81040B4
:1019E0000021FEF765BF10BD30B585B004460D4639
:1019F000208A4CF6FF710840E98801432182A089C2
:101A00004EF6F3110840A9882A8911436A890243D6
:101A10001143A181A08A4FF6FF410840A9890143E3
:101A2000A1826846FEF7AAFEAD48844201D1039820
:101A300000E00298A189090408D500EBC00101EB80
:101A4000001029684900B0FBF1F007E000EBC0018D
:101A500001EB001029688900B0FBF1F06422B0FBB3
:101A6000F2F109010B096FF018056B4300EB8300DD
:101A7000A3891D044FF0320307D503EBC000B0FB70
:101A8000F2F000F00700084306E003EB0010B0FBA3
:101A9000F2F000F00F000843208105B030BD4FF494
:101AA0001651016000218180C18001810C22428198
:101AB0008181704710B5038A4FF2FF0213400A88F4
:101AC0004C8822438C88C9880C4322431A430282E3
:101AD00010BD0021018041808180C18070470029B4
:101AE00004D0818941F4005181817047818921F4BA
:101AF00000518181704710B540F66A13C1F342135B
:101B000001F01F040121A140012B07D0022B07D0B7
:101B100014303AB102680A43026010BD0C30F8E795
:101B20001030F6E702688A43026010BD002A03D035
:101B3000828A0A4382827047828A8A4382827047FD
:101B4000028A22F00F020282028A0A43028270474E
:101B5000828922F40062828182890A4382817047ED
:101B6000002904D0818941F0020181817047818977
:101B700021F0020181817047028A22F02002028254
:101B8000028A0A4302827047002904D0018A41F484
:101B9000804101827047018A21F4804101827047AF
:101BA000C1F30801818070478088C0F30800704746
:101BB000818941F0010181817047028BD2B2028399
:101BC000028B42EA012101837047028B02F47F42BB
:101BD0000283028B0A4302837047002904D0818A62
:101BE00041F0200181827047818A21F020018182A9
:101BF0007047002904D0818A41F01001818270472A
:101C0000818A21F0100181827047002904D0818AE5
:101C100041F0080181827047818A21F008018182A8
:101C20007047002904D0818941F4004181817047C7
:101C30008189C1F30E0181817047002904D0818A16
:101C400041F4006181827047818A21F400618182C0
:101C50007047828A22F004028282828A0A43828248
:101C60007047002904D0818A41F0020181827047C7
:101C7000818A21F002018182704702460020128889
:101C80000A4200D0012070478A05C943018070478D
:101C900070B5002440F66A12C1F3421301F01F052B
:101CA000012606FA05F2012B0CD0022B0DD0838AF7
:101CB0001340090A8E40008830400BB100B1012466
:101CC000204670BD83891340F3E7038A1340F0E791
:101CD00040F66A120A0A01219140C9430180704707
:101CE000003801400044004000480040004C0040E3
:101CF00000500040FEF7D6BB10B504460022042178
:101D0000FC48FFF7F7FF2146FB4C204601F04AF85C
:101D10008021204601F092F80028F9D110BD70B55D
:101D200005467020FFF7E8FFF34C0021204601F044
:101D300039F88021204601F081F80028F9D12946A0
:101D4000204601F02FF88021204601F077F8002886
:101D5000F9D1BDE8704001220421E648CAE770B518
:101D60000C46FFF7DCFF7220FFF7C6FFE24D210AA9
:101D7000284601F017F88021284601F05FF8002876
:101D8000F9D1E1B2284601F00DF88021284601F092
:101D900055F80028F9D1BDE8704001220421D5484A
:101DA000A8E700210720DAE738B5FFF7FAFFD24CA1
:101DB0000021204600F0C6FF204600F0F1FE002181
:101DC000E013FEF754FD0021CC48FEF789FB042008
:101DD000ADF800008DF803006946C648FEF7EFFA3B
:101DE0002015ADF80000C64C69462046FEF7E7FA1C
:101DF000E114ADF8001069462046FEF7E0FAA114A0
:101E0000ADF8001069462046FEF7D9FA38BD01B595
:101E100081B0BC4901984843009002E00098401E00
:101E2000009000980028F9D10CBD10B586B00121B2
:101E30001120FEF711FD0121B048FEF751FB0121F1
:101E4000C803FEF714FD4FF48060ADF800000320D6
:101E50008DF8020018208DF80300A94C6946204631
:101E6000FEF7ADFAE114ADF8001069462046FEF722
:101E7000A6FAA114ADF8001069462046FEF79FFAB5
:101E80009D4C204600F08CFE0021ADF804104FF46C
:101E90008272ADF80620ADF808100222ADF80A20D3
:101EA0000120ADF80C004002ADF80E00ADF81010A6
:101EB000ADF8121001A9204600F09EFE0121204637
:101EC00000F040FF06B010BD08B501210820FEF764
:101ED000C3FC0420ADF8000003208DF802001020A0
:101EE0008DF8030069468348FEF769FA08BD10B50E
:101EF000FFF7EAFFFFF799FF0520FFF788FF4FF490
:101F00000041E520FFF72BFF01210020FFF727FF0D
:101F10004FF480710120FFF722FF4FF4E0610220AF
:101F2000FFF71DFF41F230010320FFF718FF0021EA
:101F30000420FFF714FF40F202210820FFF70FFFF3
:101F400000210920FFF70BFF00210A20FFF707FF00
:101F500000210C20FFF703FF00210D20FFF7FFFEFB
:101F600000210F20FFF7FBFE00211020FFF7F7FEF6
:101F700000211120FFF7F3FE00211220FFF7EFFEF2
:101F800000211320FFF7EBFE1420FFF740FF41F282
:101F9000B0711020FFF7E3FE40F237111120FFF778
:101FA000DEFE0520FFF733FF40F239111220FFF764
:101FB000D6FE0520FFF72BFF4FF4E8511320FFF763
:101FC000CEFE13212920FFF7CAFE0520FFF71FFFD1
:101FD00000212020FFF7C3FE00212120FFF7BFFED4
:101FE00006213020FFF7BBFE40F201113120FFF740
:101FF000B6FE03213220FFF7B2FE4FF48371352085
:10200000FFF7ADFE40F602313620FFF7A8FE40F2A2
:1020100002313720FFF7A3FE40F207713820FFF7A7
:102020009EFE07213920FFF79AFE4FF4C0613C2045
:10203000FFF795FE40F20B213D20FFF790FE0021B7
:102040005020FFF78CFEEF215120FFF788FE002182
:102050005220FFF784FE40F23F115320FFF77FFE2E
:102060004FF41C516020FFF77AFE01216120FFF739
:1020700076FE00216A20FFF772FE00218020FFF724
:102080006EFE00218120FFF76AFE00218220FFF70B
:1020900066FE00218320FFF762FE00218420FFF707
:1020A0005EFE00218520FFF75AFE10219020FFF7E9
:1020B00056FE00219220FFF752FE03219320FFF7E6
:1020C0004EFE4FF488719520FFF749FE00219720BE
:1020D000FFF745FE00219820FFF741FE41F218016D
:1020E0000320FFF73CFEBDE8104040F273110720CB
:1020F00035E60000000C0140003C004000102000CC
:1021000000100140A0860100FA494860704710B5F0
:10211000FFF7EDFEF748BDE810400830F4E703B5DF
:10212000BDF80010F3480180BDF8041041800CBDDB
:10213000F04A1388038050880880704701B5BDF8C5
:102140000000EC49088008BD01B5BDF80000E94970
:10215000488008BDE7484068704710B50C46014606
:102160002020FFF7FCFD2146BDE810402120F6E5C8
:1021700070B50446E04D210A284600F013FE802188
:10218000284600F05BFE0028F9D1E1B2284600F0B5
:1021900009FE8021284600F051FE0028F9D170BDCB
:1021A00010B52220FFF7BBFDBDE810407220A3E56B
:1021B0002DE9F04707468A469146002551463846A4
:1021C000FFF7CBFFDFF82C8331E0FFF7E9FF0024B6
:1021D0001CE00C20B3FBF0F0C1008020884039F8EF
:1021E00015602041304201D10C2B05D90120A040BF
:1021F000064206D10C2B04D9B8F80200FFF7B8FF4D
:1022000003E0B8F80000FFF7B3FF641CD8F804003F
:102210008388A342DDD801220421B848FFF76AFD74
:102220007F1CFFB251463846FFF797FF6D1CD8F868
:102230000400C088A842C8D8BDE8F08730B4203A6E
:10224000D3B2AC4A52681468D2885A4304EB4202B3
:1022500030BCADE770B5064640F23F14A54D08E02E
:10226000202221463046FFF7E9FF68688088201A5F
:1022700084B2611C88B2696889888842F0D270BDD6
:1022800070B50646002440F23F110020FFF765FFBD
:10229000FFF786FF4FF496353046FFF769FF641C61
:1022A000AC42F9D3BDE8704001220421934821E5F6
:1022B0002DE9F04107460D4640F23F148D4E08E0EF
:1022C00021463846FFF7BAFF70688088201A84B22A
:1022D0006D1C2A78002A05D07168601C80B289883C
:1022E0008842EDD2BDE8F08170B504460D461E4629
:1022F000944206D3A01A401C81B25020FFF72FFD54
:1023000003E000215020FFF72AFD21465120FFF76E
:1023100026FDB54206D3A81B401C81B25220FFF710
:102320001EFD03E000215220FFF719FD294653202E
:10233000FFF715FD29462046BDE870400DE710B5B2
:102340004FF4A073F022591EEF20FFF7CDFFBDE838
:10235000104041F21801032001E510B50446FFF7D3
:102360001FFF2046FFF704FF0122BDE810400421B3
:102370006248BFE42DE9F04706468846154699466F
:10238000002441463046FFF7E8FE5A4FB9F1000FEE
:1023900018D1FFF705FF03E03888FFF7E9FE641C5A
:1023A000AC42F9D3BDE8F047012204215348A1E42F
:1023B0003888FFF7D2FF761CF6B241463046FFF769
:1023C000CCFE641CAC42F3D336E72DE9F041044661
:1023D0000F4615461E460023324639462046FFF773
:1023E000C9FF6019C0B2002332463946FFF7C2FF69
:1023F00001232A4639462046FFF7BCFFB81B401C84
:1024000081B22A462046BDE8F0410123B2E72DE91A
:10241000FC5F804689460320A0EB42060024154657
:1024200064E008EB040009EB050A01901FFA8AF149
:10243000C0B2FFF792FE2F4F3888FFF78EFF01984A
:10244000A9EB050B1FFA8BF1C0B2FFF786FE3888A7
:10245000FFF783FF1FFA8AF1A8EB040A0AF0FF00D6
:10246000FFF77BFE3888FFF778FF1FFA8BF10AF041
:10247000FF00FFF772FE3888FFF76FFF09EB0400DB
:1024800081B208EB050A00900AF0FF00FFF765FE35
:102490003888FFF762FFA9EB040B1FFA8BF10AF0F3
:1024A000FF00FFF75AFE3888FFF757FF0098A8EBA8
:1024B000050A81B20AF0FF00FFF74FFE3888FFF7E8
:1024C0004CFF1FFA8BF10AF0FF00FFF746FE388839
:1024D000FFF743FF002E03DA06EB8406B61D04E087
:1024E000601B06EB80060A366D1E641CAC4298D950
:1024F000BDE8FC9F40000020003C0040000C014073
:102500002DE9F0478046002540F23F110020FFF7FB
:1025100024FEFFF745FEFF4F01264FF41669002405
:1025200058F8250006FA04F1084203D17888FFF72D
:102530001FFE02E03888FFF71BFE641C202CEFD33F
:102540006D1C4D45EBD3BDE8F04701220421F24854
:10255000FFF7D0BB70B54188828841EA02424189C9
:10256000838941EA0341521A560821F001010D18EE
:1025700041F208010320FFF7F2FBFFF711FE0024F0
:1025800004E035F81400FFF7F3FD641CB442F8D3FF
:1025900001220421E048FFF7ADFBBDE8704041F2A5
:1025A00018010320FFF7DBBB2DE9F04104460F467D
:1025B00090461D46D74E3088FFF7C0FDE0B200239D
:1025C00042463946FFF7D6FE6019C0B200234246A4
:1025D0003946FFF7CFFEE0B201232A463946FFF71E
:1025E000C9FEA7EB0800401C81B2E0B201232A46D5
:1025F000FFF7C0FEA8F102081FFA88F86D1EADB201
:102600007F1EBFB27088FFF799FD07E0641CA4B27B
:10261000E0B2002342463946FFF7ACFE6D1EADB274
:10262000F4D23088BDE8F04188E52DE9F041054657
:102630008846174600245E1C08E02819B2B2C0B2D2
:1026400000234146FFF796FE641CA4B2BC42F4D9B5
:1026500048E62DE9F74F0746884602980321A1EB8B
:1026600040060024029DAB484088FFF767FD4FF607
:10267000FF7935E09DB109EA450208EB050A381BF0
:1026800093461FFA8AF1C0B20023FFF773FE381990
:102690005A461FFA8AF1C0B20023FFF76BFE9CB1C5
:1026A00009EA440208EB040A781B93461FFA8AF1F0
:1026B000C0B20023FFF75EFE78195A461FFA8AF16E
:1026C000C0B20023FFF756FE002E03DA06EB8406A5
:1026D000B61D04E0601B06EB80060A366D1E641C06
:1026E000AC42C7D98B480088FFF728FD029A03B097
:1026F000F8B24146BDE8F04F89E6F02809D200293A
:1027000007DBB1F5A07F04DA002389B2C0B2012251
:1027100030E670472DE9FC5F84460C460027A2EBAB
:102720000C00002801DCACEB020000B2191B0029F0
:1027300000DCE11A09B20FFA8CF526B24FF0FF3B2C
:10274000624503D34FF00109CA4601E0D946DA4693
:10275000A34204D34FF0010B0122019201E0CDF816
:1027600004B088420ADB4FF000090022019200EB1E
:10277000D072521014B20091804623E04FF0000A4C
:10278000D34601EBD172521014B20090884619E082
:1027900031462846FFF7B1FF0098204404B2444573
:1027A00008DBA4EB080004B205EB090005B206EB58
:1027B0000B0006B205EB0A0005B20198304406B2E0
:1027C0007F1C3FB24745E3DD92E670B504460D46F7
:1027D000022D0DD308E020886188241D89B263880A
:1027E000228880B2FFF796FF6D1E2D042D0CF2D1CA
:1027F00070BD2DE9F04704460F469146A046022FD2
:1028000025D3B4F90050B4F9026010E0241DB1B230
:102810006088304483B22088284482B2A8B2FFF78F
:1028200079FF2088284405B26088304406B27F1EB4
:102830003F043F0CEAD1B9F1000F08D0B3B2AAB2FD
:10284000B8F80210B8F80000BDE8F04762E7F3E41A
:1028500070B504460D4629462046FFF7B6FF04EB47
:102860008500001F6188438802882088BDE8704089
:1028700050E70022BDE70122BBE72DE9F34FE9B0A5
:102880000446B4F800B0CDF808B062880192012087
:1028900015E004EB80014988594500D28B46029B24
:1028A000994200D9029134F82090914500D24A46CD
:1028B0000199894501D9CDF80490401C80B26A99EC
:1028C0008842E6D313484088FFF738FC9146B8E0C9
:1028D0004FF0000A6A98401E1FFA80F8002555E064
:1028E000484602F073FF0646679168900F4634F938
:1028F000250002F05AFF32463B4602F08DFF10D20F
:1029000034F92800679F689E02F04FFF32463B462D
:1029100004E0000040000020000C014002F090FFA5
:1029200015D934F92800679F689E02F03EFF3246B1
:102930003B4602F071FF26D234F92500679F689E5E
:1029400002F033FF32463B4602F07AFF1BD804EB1D
:102950008800B0F9021004EB8500B0F902000A1AF1
:1029600034F92510A9EB01035A4334F92830591AD8
:1029700092FBF1F10844514603AA0AF1010A1FFA39
:102980008AFA22F81100A8466D1CADB26A988542F9
:10299000A6D30020AAF1010503AF0FE0411C37F8D0
:1029A000102037F811309A4207D927F8103027F84D
:1029B000112018B1401E80B200E088B2A842EDDBC1
:1029C000002538E037F815000299884235D26E1C90
:1029D00037F8161059452CD9584501D227F815B0AB
:1029E00037F816100298814202D9029827F816008B
:1029F000DFF8A081B8F80200FFF7A0FB37F8161047
:102A000037F815000023081A82B209F0FF00FFF71B
:102A1000B1FCB8F80000FFF791FB37F916100FFA78
:102A200089F00646FFF769FE37F915103046FFF7C3
:102A300064FEAD1CADB25545C4D309F101091FFABE
:102A400089F901988145FFF443AF524800886BB083
:102A5000BDE8F04FFFF772BB70B500244E4D2988DA
:102A600021F038012980298841F008012980FFF7E9
:102A700056F97320FFF740F9FF21284600F092F93C
:102A80008021284600F0DAF90028F9D101212846F2
:102A900000F0D4F90028F9D0284600F085F9641C2C
:102AA000E4B2052CE8D3FF21284600F07BF9802111
:102AB000284600F0C3F90028F9D10121284600F08A
:102AC000BDF90028F9D0284600F06EF90446FF2130
:102AD000284600F067F98021284600F0AFF9002869
:102AE000F9D10121284600F0A9F90028F9D028469B
:102AF00000F05AF9E1B240EA0124012204212748FA
:102B0000FFF7F8F8288820F038002880204670BDAC
:102B100010B500211020FFF722F900211120FFF746
:102B20001EF900211220FFF71AF900211320FFF7E8
:102B300016F91420FFF76BF941F2B0711020FFF77E
:102B40000EF940F237111120FFF709F90520FFF7C0
:102B50005EF940F239111220FFF701F90520FFF765
:102B600056F94FF4E8511320FFF7F9F81321292003
:102B7000FFF7F5F80520FFF74AF9BDE8104040F2ED
:102B800073110720FFF7EBB840F273110720FFF72E
:102B9000E6B8000040000020003C0040000C01406E
:102BA00010B5BA4988420AD1841401212046FDF7A4
:102BB00074FE2046BDE810400021FDF76EBEB4490A
:102BC00088420AD1041401212046FDF771FE2046F7
:102BD000BDE810400021FDF76BBEAE4988420AD126
:102BE000C41301212046FDF763FE2046BDE81040D6
:102BF0000021FDF75DBE10BD30B5028802F44153DF
:102C00000A884C88CD8822438C882C4322430C8927
:102C100022434C8922438C892243CC8922431A4384
:102C20000280828B22F400628283098A018230BD95
:102C3000F0B585B005460C46022000210126AA8B7E
:102C40004FF240031A40AA8302222A84AF8BA26863
:102C5000022A42D0A08800B102268D48854202D1C6
:102C60004FF4003001E04FF480208B49CA6A0242E1
:102C700014D0C86AC0F30330821F092A01D2801C15
:102C800002E00F2800D11420C96AC1F30311491CC6
:102C9000824AB2FBF1F14143480003E06846FDF788
:102CA0006DFD0098E188B1F5007F2CD07101B0FB7B
:102CB000F1F000EB8000A1684000B0FBF1F0401D96
:102CC00080B20A21B0FBF1F000F00101401AC0F31C
:102CD0004F004FF6FF7202EA0121821EFE2A01D345
:102CE00002200021E288084302432A842088618868
:102CF000A2890843A18811430843384340F4006087
:102D0000A88305B0F0BD000A00EB8000A168400078
:102D1000B0FBF1F0401D80B2D3E70021018041807B
:102D20008180C180018141818181C181072101822E
:102D300070470021018041808180C1800222826031
:102D400081817047002904D0018841F04001018051
:102D50007047018821F0400101807047002904D0AC
:102D6000818B41F4806181837047818B21F4806184
:102D700081837047090901238B4099B2002A03D04F
:102D800082880A438280704782888A4382807047A3
:102D9000002A03D082880A438280704782888A434F
:102DA000828070478181704780897047A1F57E429B
:102DB000FF3A04D0018841F4807101807047018896
:102DC00021F4807101807047002904D0818841F08E
:102DD000040181807047818821F00401818070475F
:102DE000028822F40062028002880A43028070474F
:102DF000018841F4805101807047002904D0018886
:102E000041F4005101807047018821F40051018094
:102E10007047012901D0008B7047808A7047008A73
:102E20007047B1F5804F04D0018821F480410180C2
:102E30007047018841F480410180704702460020BC
:102E400012890A4200D001207047C94301817047AE
:102E500030B50246002001F00F03012505FA03F406
:102E6000A3B2090905FA01F4A4B29188214012899C
:102E70001A4202D0002900D0012030BD01F00F021B
:102E800001219140C9430181704700000030014099
:102E900000380040003C00400010024040787D01B6
:102EA00010B5FDF77FF94F49886940F26122104360
:102EB00088614D48026822F47F220260026842F471
:102EC0004C320260021D136823F470031360136810
:102ED00043F440131360454A136823F07063136092
:102EE000136843F040731360414A536843F008038A
:102EF0005360026822F07F620260026842F09662CC
:102F00000260C86940F40030C8613A4940F23510A7
:102F10000880384900200C310880091F0880354A94
:102F200042F20C01121D118033490A6822F470220A
:102F30000A603249086031494FF4A04020390860E6
:102F40002E490E200831086088152C492839086060
:102F50002A482B4924380160016841F008010160CA
:102F600001680907FCD4016841F0040101600168AF
:102F70004907FCD4016841F4A001016021486421A3
:102F80000068B0FBF1F14FF0E020491E41610521DE
:102F9000016110BD0021C20701D04FF48041134AE6
:102FA0000C321160121D81F48041116000218207F2
:102FB00001D54FF40051420701D541F00801000747
:102FC00001D541F0100108481030016042F298002C
:102FD000414005481430016070470A4601460AA086
:102FE00002F0E6BC00100240001401400418014049
:102FF0000000014008440040001001402C24014022
:1030000003000E0000000020415353455254494F25
:103010004E204641494C5552453A2025733A256485
:103020000A00000001463F4800F091B901463D48C2
:1030300000F0A1B901F06BBA08B526208DF80000A8
:1030400000208DF801008DF8020001208DF80300AA
:103050006846FEF72AFC08BD1FB54FF49650009055
:103060000020ADF80400ADF80600ADF80800ADF89A
:103070000C000C20ADF80A002B4C69462046FEF7E8
:10308000B3FC01212046FEF72AFD012240F2255122
:103090002046FEF730FD1FBD38B52020ADF80000FA
:1030A00018208DF8030003208DF802001F4C69469C
:1030B0002046FDF784F94021ADF8001004218DF879
:1030C000031069462046FDF77AF901210820FDF733
:1030D00007FA38BD10B501214804FDF7C8FB0121EE
:1030E000BDE810402120FDF7B7BB10B5FFF7D8FEB3
:1030F000FDF7B6FEFFF7EEFFFFF7CEFFFFF7ACFFE1
:10310000FFF79AFF01F0C2F900F0F3FF054800F065
:10311000EBF801F0D3FA06A002F04AFC02F075F9D0
:10312000002010BD58000020004400400014014061
:10313000536574757020636F6D706C6574652000E5
:103140002DE9F843964F40F2255529463846FEF7BB
:103150009FFD944C10B33846FEF726FD924E226830
:10316000B054521C22604FF00008062A0CD13146A0
:1031700001F1640002F068FA00231A4619466068FB
:1031800001F071FCC4F800803078682806D07428FB
:1031900004D086A002F00CFCC4F8008040F2277630
:1031A00031463846FEF774FD58B100226946A068E2
:1031B00001F0ABFD01280AD0002231463846FEF767
:1031C0009AFC29463846FEF783FDBDE8F8839DF852
:1031D0000000022814D003280DD0042806D00528AA
:1031E00012D130213846FEF7DBFC0DE031213846A4
:1031F000FEF7D6FC08E032213846FEF7D1FC03E0AA
:1032000033213846FEF7CCFC31463846FEF740FD08
:103210000028F9D0D5E710B5044600235A1E1946F8
:10322000606801F0F0FC60486430017922689170B8
:1032300040792168C87000236068BDE810401A46D4
:10324000194601F010BC10B5044600235A1E194659
:10325000606801F0D8FC544864300179226811702C
:1032600040792168487000236068BDE810401A4624
:10327000194601F0F8BB0EB5D0E900128068CDE91F
:1032800000120290474C4FF0FF3500232A461946A2
:10329000606801F0B8FC4448042247A1643002F0A1
:1032A00003FA10B96846FFF7CEFF3F48042244A155
:1032B000643002F0F9F90028E7D16846FFF7ABFF68
:1032C000E3E708B5374C364F4FF0FF3540F227762D
:1032D00001232A466946A06801F095FC0122314687
:1032E0003846FEF708FCF3E77FB5054600210120CC
:1032F00001F01AFB2B4C606020B100231A461946DE
:1033000001F0B1FB0121202001F00EFBA0600023A1
:103310001A461946606801F076FC01F008FC686006
:1033200000240326CDE9006402942B46642226A1E2
:103330002848039401F094FDCDE9006402942B46E3
:10334000642225A12748039401F08AFD7FBD70B552
:1033500004460D4600235A1E1946606801F053FCCE
:103360002068008828806068BDE8704000231A4605
:10337000194601F078BB70B504460D4600235A1E6D
:103380001946606801F03FFC20684088288060682A
:10339000BDE8704000231A46194601F064BB0000E6
:1033A0000044004064000020E400002055415254D5
:1033B000204552524F52200074656D70000000008D
:1033C00068756D690000000053656E64696E67542E
:1033D00061736B00C3320008557064617465546199
:1033E000736B00007732000870B50020FEF748FFCD
:1033F00000244FF6FF752846FEF7A0FE0020FEF7DA
:10340000A3FEFEF7A7FE8079F8A18006000EFEF766
:103410004FFF641C322CEEDB00242846FEF78EFEA4
:103420000020FEF791FEFEF795FE8079F3A100EBF8
:103430008000C0B2FEF73CFF641C322CEDDB70BD97
:103440002DE9F84F0746884615460024C5F10106C8
:103450003AE0E91904EB08008AB2009183B281B224
:10346000A7EB050A1FFA8AF0FFF754F905EB0800ED
:1034700083B204EB070B81B2A7EB04091FFA8BF2AE
:103480001FFA89F0FFF746F90099A8EB04008AB209
:1034900083B281B21FFA8AF0FFF73CF9A8EB05006E
:1034A00083B281B21FFA8BF21FFA89F0FFF732F96B
:1034B000641C002E03DA06EB4406761C04E06D1E45
:1034C000601B401C06EB4006A542C2DABDE8F88F3F
:1034D00070B504460D464FF6FF763046FEF72EFED9
:1034E00005F1230081B2A4F123004623C0B21A469D
:1034F000FEF76BFF1F20FEF721FE1922294620460A
:10350000FFF79EFF3046FEF719FEE81C81B2A01EB1
:10351000C0B206231422FFF788F82946A4F10D0053
:10352000BDE8704005228BE72DE9F04704460D46C3
:103530004FF6FF763046FEF701FE05F1230081B21B
:10354000A4F123004623C0B21A46FEF73EFF19221B
:1035500029462046FFF774FF4CF21860FEF7EEFD97
:10356000052229462046FFF76BFFE81C074681B27B
:10357000A4F10A00C0B206230222FFF756F8281D64
:10358000804681B2A4F10E00C0B208230222FFF7E8
:103590004CF8681D814681B2A4F11200C0B20A2322
:1035A0000222FFF742F8A81D824681B2A4F116005C
:1035B000C0B20C230222FFF738F804F10800B9B2B8
:1035C000C0B206230222FFF730F804F10C001FFA04
:1035D00088F1C0B208230222FFF727F804F1100097
:1035E0001FFA89F1C0B20A230222FFF71EF804F184
:1035F00014001FFA8AF1C0B20C230222FFF715F85B
:1036000005F10A0081B2E01E0746C0B2022306227D
:10361000FFF70BF805F10E0081B2201F8046C0B203
:1036200002230822FFF701F805F1120081B2601FA2
:103630008146C0B202230A22FEF7F7FF05F1160009
:1036400081B2A01F8246C0B202230C22FEF7EDFF1A
:10365000A5F1080081B2F8B202230622FEF7E5FFC9
:10366000A5F10C0081B208F0FF0002230822FEF74A
:10367000DCFFA5F1100081B209F0FF0002230A224D
:10368000FEF7D3FFA5F1140081B20AF0FF00022378
:103690000C22FEF7CAFF3046FEF750FD29462046B1
:1036A000BDE8F0470222CBE62DE9F04704460D467F
:1036B0004FF6FF70FEF742FD05F1230081B2A4F141
:1036C00023004623C0B21A46FEF77FFE4FF6E07095
:1036D000FEF734FD0A2229462046FFF7B1FEA5F188
:1036E000190083B20A3081B2A2B2A0B2FFF712F879
:1036F00005F1190083B20A3881B2A2B2A0B2FFF775
:1037000009F8A4F1190082B20A30ABB2A9B280B2B2
:10371000FFF700F804F1190082B20A38ABB2A9B27F
:1037200080B2FEF7F7FFA4F10A00A5F11406A4F198
:103730001409A5F10A078246B3B21FFA89F2B9B299
:1037400080B2FEF7E7FFB3B2B9B204F1140604F198
:103750000A07B2B2B8B2FEF7DDFF05F114080A3568
:103760001FFA88F31FFA89F2A9B21FFA8AF0FEF74E
:10377000D1FF1FFA88F3B2B2A9B2B8B2BDE8F047E0
:10378000FEF7C8BF10B50020FEF77AFD4FF4784071
:10379000FEF7DAFC4FF6FF70FEF7D0FCFEF7DAFC1E
:1037A0001AA10020FEF784FD0020FEF7CDFCFEF7F5
:1037B000D1FC80791BA14006000EFEF779FDFEF7D3
:1037C000C9FC80791BA18006000EFEF771FD40F256
:1037D0000911AF20FFF768FFA521AF20FFF7A4FE76
:1037E0004121BDE81040AF2072E6000020202020DB
:1037F000202047726F7570203500000020202020A7
:103800005468652050726F6A656374002020202020
:1038100020202020486F6D6520202020202020209F
:103820000000000054656D70657261747572653AD0
:103830000000000048756D69646974793A00000001
:1038400070B505460C464FF6FF70FEF777FC04F1A5
:10385000270081B22823E8B21A46FEF7B6FD04F12C
:103860001C00064681B205F11600C0B210231122D9
:10387000FEF7DBFE4FF47840FEF760FC04F11F001A
:1038800083B205F1150082B204F1090189B280B258
:10389000FEF740FF04F11E0083B205F1140082B26E
:1038A00004F10A0189B280B2FEF734FF04F11D0071
:1038B00083B205F1130082B204F10B0189B280B228
:1038C000FEF728FF05F1120082B204F10C01B3B239
:1038D00089B280B2FEF71EFF04F11B0083B205F12E
:1038E000110082B204F10D0189B280B2FEF712FF1D
:1038F00005F1100004F11A0682B204F10E01B3B210
:1039000089B280B2FEF706FF701E83B205F10F0088
:1039100082B204F10F0189B280B2FEF7FBFEB01E45
:1039200083B205F10E0082B204F1100189B280B2B7
:10393000FEF7F0FEF01E83B205F10D0082B204F135
:10394000110189B280B2FEF7E5FE301F83B205F1A6
:103950000C0082B204F1120189B280B2FEF7DAFEE5
:10396000701F83B205F10B0082B2F11F89B280B2E1
:10397000FEF7D0FE143405F10A0082B2A3B2A1B260
:1039800080B2FEF7C7FE4CF21860FEF7D7FB1D357C
:10399000B1B2E8B2BDE8704007230A22FEF745BE87
:1039A00070B504460D464FF6FF70FEF7C7FB28239F
:1039B000A9B2E0B21A46FEF708FD0A3D1234A9B2D8
:1039C000E0B2BDE8704014230422FEF72EBE70B5AD
:1039D00004460D464FF6FF70FEF7B0FB2823A9B250
:1039E000E0B21A46FEF7F1FCA5F1120081B204F133
:1039F0000A00C0B204231422FEF717FE0A3D123457
:103A0000A9B2E0B2BDE8704014230422FEF70DBE57
:103A10002DE9F04104460D464FF6FF70FEF78EFB90
:103A20002823A9B2E0B21A46FEF7CFFC4FF4FC609F
:103A3000FEF784FBA5F10F0604F12807A5F10108A4
:103A400004F11400B3B2BAB21FFA88F180B2FEF7E3
:103A500061FE701E83B204F11300BAB21FFA88F13E
:103A600080B2FEF757FEB01E83B204F11200BAB264
:103A70001FFA88F180B2FEF74DFEA5F1260083B251
:103A800004F101081FFA88F2B1B2B8B2FEF742FEA3
:103A9000A5F1250083B2781E1FFA88F2B1B280B278
:103AA000FEF738FE243D2634ABB21FFA88F2B1B2DD
:103AB000A0B2BDE8F041FEF72DBE10B50020FEF724
:103AC000DFFB4FF47840FEF73FFB4FF6FF70FEF749
:103AD00035FBFEF73FFBF9A10020FEF7E9FB0020D4
:103AE000FEF732FBFEF736FB8079FAA14006000EA6
:103AF000FEF7DEFBFEF72EFB8079F9A18006000EB3
:103B0000FEF7D6FBB4218C20FFF782FF78215720E7
:103B1000FFF75DFFF0215720FFF742FFBDE810409F
:103B20004FF48C71AA208BE610B50020FEF7A8FB9D
:103B30004FF47840FEF708FB4FF6FF70FEF7FEFAF1
:103B4000FEF708FBE8A10020FEF7B2FB0020FEF71D
:103B5000FBFAFEF7FFFA8079E9A14006000EFEF7B6
:103B6000A7FBFEF7F7FA8079E7A18006000EFEF7C3
:103B70009FFBFEF7EFFA8079E5A100EB40004006DD
:103B8000000EFEF795FBBDE810404FF48C71AA20A3
:103B900056E610B50020FEF773FB4FF47840FEF7B1
:103BA000D3FA4FF6FF70FEF7C9FAFEF7D3FADAA19F
:103BB0000020FEF77DFB0020FEF7C6FAFEF7CAFAEA
:103BC0008079DBA14006000EFEF772FBFEF7C2FA19
:103BD0008079DBA100EB4000C0B2FEF769FBFEF785
:103BE000B9FA8079D9A18006000EFEF761FBFEF7D5
:103BF000B1FA8079D8A100EB8000C0B2FEF758FB83
:103C0000FEF7A8FA8079D9A1C0EBC000C0B2FEF7D8
:103C10004FFBFEF79FFA8079BDE81040C006000E0A
:103C2000D8A1FEF745BB2DE9F04704460D464FF4F9
:103C3000FC684046FEF782FAA9B2E0B24B23282284
:103C4000FEF7F3FC4FF6FF70FEF778FAA9B2E0B288
:103C50004B232822FEF7B9FBA5F1140104F114004F
:103C60000A2289468246FFF7EBFBA5F1250081B2C7
:103C700004F10A07F8B203231422FEF7D6FCA5F1DB
:103C80003506B1B2F8B203231422FEF7CEFC04F1DC
:103C90001B0082B2283DB3B2A9B2B8B2FEF73AFD1A
:103CA00004F11C0082B21138B3B2A9B280B2FEF79F
:103CB00031FD04F11D0082B21138B3B2A9B280B255
:103CC000FEF728FD04F11E0082B20D34B3B2A9B292
:103CD000A0B2FEF71FFD4046FEF730FA49465046B7
:103CE000BDE8F0470722FFF7ABBB2DE9F0470546DB
:103CF0000C464FF478473846FEF720FAA1B2E8B2F6
:103D00004B232822FEF791FC4FF6FF70FEF716FAC0
:103D1000A1B2E8B24B232822FEF757FBA4F10F0112
:103D200005F114000A2288468146FFF789FBA4F1B9
:103D3000200081B205F10A06F0B202231422FEF738
:103D400074FCA4F12300824681B2F0B20A2302225D
:103D5000FEF76BFC13351FFA8AF1E8B20823022242
:103D6000FEF763FCA4F1320081B2F0B20223142208
:103D7000FEF75BFC353CA1B2F0B20A230222FEF74B
:103D800054FCA1B2E8B208230222FEF74EFC3846EA
:103D9000FEF7D4F941464846BDE8F0470722FFF751
:103DA0004FBB88B018227BA102A801F04DFC01F0A6
:103DB0004FFB01904FF0FF367C4D370C02AC0023D7
:103DC00032461946E86800F01EFF3846FEF7B6F99D
:103DD000FEF7C0F9807902A900EBC000C0B2FEF77F
:103DE00067FA00231A461946E86800F03CFE0021F5
:103DF000601840786054491C1329F9DB00231A46E7
:103E00000DF11B01A86800F0FEFE10B920208DF80E
:103E10001B000A2101A801F04AF9D0E708B5634C5C
:103E20004FF0FF352E0CE07810B1012844D1BFE0EF
:103E30006846FFF7F7F800232A461946E06800F0C5
:103E4000E2FE3046FEF77AF90020FEF77DF9FEF734
:103E500081F980799DF800204006000E6421FEF76C
:103E6000EDF9FEF777F980799DF801204006000E04
:103E70005021FEF7E3F96846FFF7D8F847F6FF70E0
:103E8000FEF75CF9FEF766F980799DF80020800660
:103E9000000EA021FEF7D2F9FEF75CF980799DF8BB
:103EA00001208006000E8C21FEF7C8F900231A4677
:103EB0001946E06800F0D7FDB5E00000202020534F
:103EC00065742054656D706572617475726520202B
:103ED0002000000043757272656E743A00000000A5
:103EE0005365743A000000002020202020205365F4
:103EF0007474696E67732020202020200000000069
:103F00004169723A00000000486561743A0000009F
:103F10004175746F3A0000002020202020202041AD
:103F20007574686F7273202020202020200000000C
:103F30002D205A41434841524F504F554C4F53004A
:103F40002D204B41524B414E495300002D204E54E1
:103F50004F554E41530000002D205354414D4154C4
:103F6000414B4F504F554C4F53000000456D62651B
:103F7000646465642050726F6772616D6D696E670D
:103F8000000000002020202020202020323031346A
:103F900000000000202020202020202020202020A1
:103FA0002020202020202020000000007000002081
:103FB0006846FFF737F800232A461946E06800F004
:103FC00022FE3046FEF7BAF80020FEF7BDF8FEF7F5
:103FD000C1F880799DF800204006000EB421FEF75C
:103FE0002DF9FEF7B7F880799DF801204006000E04
:103FF000A021FEF723F9FEF7ADF88079227880063C
:10400000000EB421FEF71AF9FEF7A4F88079627861
:104010008006000EA021FEF711F900231A4619466A
:10402000E06800F020FD322001F079F8FBE62DE990
:10403000F047DDE908890A9FDFF824C4DFF824A4EB
:104040009CF8025005EB85060AEB860427722AF8D5
:1040500026206380A080E180C4F81080C4F80C9012
:104060006D1C8CF80250BDE8F08708B501F0F0F93E
:1040700000900024DFF8EC83F94FFDF745F9054681
:104080001CB1288830BB002424E0288810B3002607
:104090001CE006EB860108EB81046888A288824256
:1040A00012D8E28882420FD338F82120A9888A42A8
:1040B0000AD362888A4207D8227AFB789A4203D1CF
:1040C000D4E90334EA88A047761CF6B2B878864271
:1040D000DFD301240A21684600F0E9FFCDE708B5E7
:1040E0000093DF4800231A466946006900F0BBFCD4
:1040F00008BDFEB50221042000F016FCD849086175
:104100000027D94CCDE900478C23D2225A21142014
:104110000297FFF78CFF01258DE8B0008C23D22297
:10412000BE217820FFF783FF02268DE8D0008C2384
:10413000D2224FF49171DC20FFF779FF0327CDE9FC
:104140000175AA23D222282100200094FFF76FFFD7
:104150000420CDE90106AA23D222282100940020C0
:10416000FFF765FF0520CDE9010700238101F0225B
:1041700000941846FFF75BFF0620CDE901055723A1
:104180007F22782100945020FFF751FF0720CDE9CE
:10419000010557237F22F0210094C820FFF747FF35
:1041A0000820CDE9010625234D22AF21009464208B
:1041B000FFF73DFF0920CDE9010657237F22AF21FC
:1041C00000946420FFF733FF0A20CDE9010689231C
:1041D000B122AF2100946420FFF729FF0B20CDE925
:1041E00001058C23B422114600941846FFF71FFFE7
:1041F000FEBD8CB001270A9700260996062008907C
:104200004FF00309CDF81C904FF0020ACDF818A02A
:104210000520059004200490019602960396DFF88D
:1042200040828F494FF0FF3B00235A46091DD8F8C2
:10423000100000F0E8FC98F800508DF82C5098F829
:1042400001408DF82D4098F8040000EB800185486E
:1042500000EB810098F80310007A884216D1002301
:104260005A461946D8F80C0000F0CDFC98F8040026
:104270000C280BD2DFE800F0060B2D32373C4156FC
:104280007399BF6B88F80370FFF717FCC1E088F8DB
:1042900003A0FFF749FC00240DF1040B25255BF872
:1042A000240060B104EBC40000EB041005EB4000F7
:1042B000DC21FFF7B8FC641C032CF0DBA9E004EB65
:1042C000C40000EB041005EB4000DC21FFF70DFDFE
:1042D000F1E788F80390FFF75CFC9AE088F8036048
:1042E000FFF750FA95E088F80360FFF74BFA90E08B
:1042F00088F80360FFF746FA8BE0312D0CD9641E75
:10430000E0B28DF82D00302805D239208DF82D002F
:104310006D1E8DF82C507CE0362C7AD9641E8DF8F9
:104320002D4076E0342D0CD2641CE0B28DF82D00C7
:1043300039286ED930208DF82D006D1C8DF82C5049
:1043400067E0352C65D2641C8DF82D4061E00023B8
:104350001A4608A9D8F8140000F085FB59E0019826
:1043600008B9039838B1019808B1039880B13FA00B
:1043700001F01EFB4DE0DC212520FFF754FC0197E6
:1043800000231A4607A9D8F8140000F06CFB40E09F
:10439000DC212520FFF7A9FC019600231A4606A977
:1043A000D8F8140000F05FFB33E0029808B90398D6
:1043B00038B1029808B1039880B12CA001F0F8FA46
:1043C00027E0DC215720FFF72EFC029700231A4636
:1043D00005A9D8F8140000F046FB1AE0DC215720AC
:1043E000FFF783FC029600231A4604A9D8F81400AC
:1043F00000F039FB0DE00398D8B1DC218920FFF7EC
:1044000074FC039600231A4609A9D8F8140000F09A
:104410002AFB9DF82C0088F800009DF82D0088F8F4
:10442000010000231A461946D8F80C0000F01BFBC7
:10443000F7E6DC218920FFF7F6FBDC212520FFF7DA
:1044400054FCDC215720FFF750FC0397019602969D
:1044500000231A460AA9D8F8140000F004FBD8E794
:1044600070000020B0010020DF40000820596F7567
:10447000206861766520746F2064697361626C6581
:10448000204175746F206669727374007FB500F007
:104490004EFB284DE8600121802000F045FAA8601D
:1044A0000121202000F040FA6861FDF730FEFEF7A0
:1044B0009BFFFFF767F90024EC700125CDE900545C
:1044C0000294002364221CA11E48039400F0C8FC3F
:1044D000CDE900540294002364221BA11C480394DC
:1044E00000F0BEFCCDE9005402940023642219A11F
:1044F0001B48039400F0B4FCCDE90054029400235F
:10450000642218A11B48039400F0AAFC7FBD09494E
:104510000A78027049784170704738B504460094B3
:10452000044800231A466946806800F09CFA204639
:1045300038BD000070000020446973706C617954CC
:1045400061736B001D3E00087072696E740000009C
:10455000A33D0008746F75636853637265656E00F0
:104560006B4000084E617669676174655461736BD6
:1045700000000000F341000888B0032006900220EC
:104580000590052004900420039053A00068029039
:104590000024002500F05CFF0190DFF84091DFF877
:1045A0004081504E4E4900231A46491CD9F800005C
:1045B00000F029FB01283BD198F80100072837D2E9
:1045C000DFE800F00408150C271E3000002088F8F2
:1045D00000002DE0012088F8000029E00DBB012536
:1045E00000231A4606A9306800F03DFA20E0C5B164
:1045F000002500231A4605A9306800F034FA17E0B8
:104600007CB9012400231A4604A9306800F02BFA73
:104610000EE034B1002400231A4603A9306800F0EC
:1046200022FA05E030A001F0C3F902A8FEF702FD6E
:1046300098F80000E8B307A8FEF7F4FC022207A9E7
:1046400002A801F031F807467FB935B100250023F3
:104650001A4605A9306800F006FA34B10024002398
:104660001A4603A9306800F0FEF9002F0FDD35B1BE
:10467000002500231A4605A9306800F0F4F934B982
:10468000012400231A4604A9306800F0ECF9002F39
:104690000FDA34B1002400231A4603A9306800F071
:1046A000E2F935B9012500231A4606A9306800F061
:1046B000DAF9642101A800F0FAFC73E71FB50020C5
:1046C0000221CDE90010029003460390642209A163
:1046D0000B4800F0C5FB1FBD3235000084000020F0
:1046E000880000206C0000204E45575F54454D5017
:1046F00000000000436F6E74726F6C5461736B0046
:10470000794500082DE9F0410446002500F0CAFC77
:10471000384E06F10801706801F1080360B93648A7
:104720000860002048604FF45C425A6018603248CC
:1047300042600360012070603CB11034600704D017
:1047400004F00700C0F108000444601E4DF6FF327B
:10475000904228D2274A0832096801E00A460146F9
:104760004868A04202D208680028F7D199421AD0BE
:1047700015681035086810604868001B20280ED99D
:104780000B1958604C605C681A48083000E010460D
:1047900002685768A742FAD302681A600360486843
:1047A0003168081A306000F02AFC2846BDE8F08124
:1047B00010B5002818D01038044600F073FC60686B
:1047C0000C49083100E011460A6853688342FAD365
:1047D000086820600C600748616802681144016045
:1047E000BDE8104000F00BBC10BD024800687047E7
:1047F000704700008C000020B006002000F1080186
:1048000041604FF0FF328260C160016100210160B0
:104810007047002101617047426853684B604368EC
:104820008B60536899605160416008610168491C60
:104830000160704710B50B685A1C02D000F10802E5
:1048400002E0026904E05268546824689C42FAD984
:1048500053684B6099608A60516008610168491C27
:10486000016010BDD0E901219160D0E901125160D1
:1048700001694A68824201D182684A60002202616D
:104880000868401E0860704720384FF08073C3618D
:1048900081610021416140F8202970474FF0E020FC
:1048A0001E49416107210161704710B51C4801682C
:1048B00041F47F010160016841F07F410160FFF731
:1048C000EDFF184900200860FBF72AFC002010BD0E
:1048D000704713494FF080501C390860704710B57D
:1048E000FBF744FC0F480168491C016010BD0D49ED
:1048F0000868401E0860002801D1FBF73EBC7047E5
:1049000010B507494FF080501C390860FBF72EFCAA
:1049100000F03AFBBDE81040FBF72FBC7FFC0A001B
:1049200020ED00E0A400002070B505460E46002DE5
:1049300028D04C20FFF7E6FE04461CB305FB06F02A
:10494000401CFFF7DFFE2060C8B105FB0601616077
:104950000021A163A060691E01FB0600E060E56321
:1049600026644FF0FF306064A06404F11000FFF78C
:1049700045FF04F12400FFF741FF204670BD2046AB
:10498000FFF716FF002070BD70B50446FFF7A7FFC4
:1049900004F124050AE0606A58B1284600F091FD50
:1049A00008B100F0EBFDA06C401EA064A06C0028D4
:1049B000F1DC4FF0FF35A564FFF799FFFFF78FFF9C
:1049C00004F110060AE0206958B1304600F079FD84
:1049D00008B100F0D3FD606C401E6064606C00287C
:1049E000F1DC6564BDE87040FFF781BF10B5044697
:1049F000FFF775FFA06BE16B884201D1012400E055
:104A00000024FFF774FF204610BD10B50446104681
:104A1000226C002A11D0C8B1E06800F015FEE168F0
:104A2000206C091AE1602268914202D26168081A7A
:104A3000E060A06B401CA06310BD20680028F8D186
:104A4000606800F0DBFD00206060F2E7A06800F025
:104A5000FBFD216CA0680844A06061688842E8D32F
:104A60002068A060E5E72DE9FF4182B00446884652
:104A70001F4600250026FFF732FFA06BE16B88423E
:104A800014D23A4641462046FFF7BFFF606A38B16C
:104A900004F1240000F015FD012801D1FFF719FFF2
:104AA000FFF725FF012006B0BDE8F081049808B1AA
:104AB00025B107E0FFF71BFF0020F4E7684600F090
:104AC0002FFD0125FFF713FF00F0ECFAFFF707FFBA
:104AD000606C401C00D16664A06C401C00D1A664D0
:104AE000FFF705FF04A9684600F020FD30B120461D
:104AF000FFF74AFF00F083FA0020D4E72046FFF7D3
:104B000075FF70B104F11000049900F0B0FC20466C
:104B1000FFF73AFF00F073FA0028ACD1FFF7D9FE97
:104B2000A9E72046FFF730FF00F069FAA3E710B5C8
:104B30004C20FFF7E7FD0446CCB100206060206008
:104B4000A060E060A0630121E1632064401E606416
:104B5000A06404F11000FFF751FE04F12400FFF7F8
:104B60004DFE00231A4619462046FFF77CFF2046DB
:104B700010BD2DE9F04104460F4615461E46FBF7D1
:104B8000F5FAA06BE26B904217D2324639462046C6
:104B9000FFF73BFFA06C411C03D0401CA064012424
:104BA0000CE0606A0028FAD004F1240000F089FCCF
:104BB0000028F4D001202860F1E70024FBF7DDFA9B
:104BC000204671E710B50446FFF789FEA06B20B1BF
:104BD0000024FFF78CFE204610BD0124F9E730B415
:104BE0000C460368002B0CD0026CC1681144C160F4
:104BF0004568A94200D3C360C168204630BC00F0BC
:104C000023BD30BC70472DE9FF4383B0044689467D
:104C100098460025002604F12407FFF760FEA06BEC
:104C200050B3E56849462046FFF7D9FFB8F1000FB9
:104C30000ED0E560606A28B1384600F042FC08B149
:104C4000FFF747FEFFF753FE012007B0BDE8F083F2
:104C5000A06B401EA063206810B900F093FC606058
:104C600020690028EED004F1100000F02AFC012891
:104C7000E8D1FFF72EFEE5E7059808B125B107E07A
:104C8000FFF735FE0020E0E701A800F049FC012510
:104C9000FFF72DFE00F006FAFFF721FE606C401CC6
:104CA00000D16664A06C401C00D1A664FFF71FFE13
:104CB00005A901A800F03AFC30B12046FFF764FED8
:104CC00000F09DF90020C0E72046FFF77BFFB0B160
:104CD000206830B9FFF703FE606800F056FCFFF76C
:104CE00006FE3846059900F0C2FB2046FFF74CFE51
:104CF00000F085F9002890D1FFF7EBFD8DE7204605
:104D0000FFF742FE00F07BF987E770B504460E46D8
:104D10001546FBF72BFAA06BC8B131462046FFF7CA
:104D20005EFFA06B401EA063606C411C03D0401C62
:104D3000606401240CE020690028FAD004F110001E
:104D400000F0BFFB0028F4D001202860F1E7002428
:104D5000FBF713FA204670BD10B50446FFF7BFFD00
:104D6000A46BFFF7C4FD204610BD806B704710B5E3
:104D700004462068FFF71CFD2046BDE81040FFF701
:104D800017BD806B002801D00020704701207047BC
:104D9000816BC06B814201D10120704700207047B8
:104DA00070B50024F74D04EB840005EB8000FFF79D
:104DB00025FD641C052CF6D3F2486430FFF71EFD78
:104DC000F0487830FFF71AFDEE488C30FFF716FDFB
:104DD000EC48A030FFF712FDEA48B430FFF70EFDB3
:104DE000E849E948643101631431416370BD70B52D
:104DF00004461546102204F1340000F049FC00205E
:104E000084F84300052D00D30425E5626564201D68
:104E1000FFF7FFFC04F11800FFF7FBFC2461C5F16C
:104E20000500A061646270BD70B506460D4648205D
:104E3000FFF768FC044644B1B60045B1284620633C
:104E400048B1A522314600F011FC204670BD304625
:104E5000FFF758FCF3E72046FFF7AAFC0024F4E72D
:104E60002DE9FF4F81B08246DDE90E6810991746A3
:104E70009B463846FFF7D8FF0446C34DECB3216B81
:104E8000781E01EB800020F007090097324620468B
:104E9000119B0299FFF7ABFF5A4651464846FFF770
:104EA000F3FC2060B8F1000F01D0C8F80040FFF714
:104EB00016FDA868401CA860286810B1A86938B120
:104EC0000BE02C60A868012807D1FFF769FF04E018
:104ED0002868C06AB04200D82C60E06A296988421C
:104EE00000D92861E96A491CE9626969884200D9E8
:104EF000686100EB8001A34800E008E000EB81005E
:104F0000211DFFF789FC0124FFF7F1FC01E04FF0C0
:104F1000FF34012C07D1A86928B12868C06AB042C3
:104F200001D2FFF7D6FC05B02046BDE8F08F70B582
:104F30000546FFF7D4FC944E3068854200D1002529
:104F4000FDB12C46201DFFF78DFCA06A18B104F1BD
:104F50001800FFF787FC8B48211DA030FFF75CFC91
:104F60007068401C7060F06A401CF062FFF7BFFC84
:104F7000B069002807D0002D05D1BDE87040FFF7CB
:104F8000A8BC3468DEE770BD70B57F4DE8690028C5
:104F900003D0286A401C286270BDE868401CE860A5
:104FA000E86808BB286B696B29636863A86A401CC2
:104FB000A86219E06068E9688842EDD8201DFFF713
:104FC00051FCA06A18B104F11800FFF74BFCE06A2D
:104FD0006969884200D968616A4900EB800001EB89
:104FE0008000211DFFF718FC286B006818B1286BA2
:104FF000C068C46800E00024002CDBD170BD2DE93E
:10500000F0410027FFF76BFC5F4EF069401EF06136
:10501000F06970BBB06860B30025DFF8688108F103
:105020008C0819E004F11800FFF71CFC201DFFF7A5
:1050300019FCE06A7169884200D97061514900EB3E
:10504000800001EB8000211DFFF7E6FBE06A31687C
:10505000C96A884200D30125D8F8000018B1D8F8F1
:105060000C00C46800E00024002CDBD1306A30B9A9
:1050700009E012E0FFF788FF306A401E3062306AB4
:105080000028F7D10125012D02D0706A012804D132
:10509000012700207062FFF71CFCFFF728FC384650
:1050A000BDE8F0813848C169491CC161704770B5DD
:1050B00006460C460022FFF7F5FF33681C44324DCC
:1050C000E868834206D9A3420AD9E868844207D92E
:1050D000012205E0A34202D8E868844200D90122F7
:1050E00034609AB12868001DFFF7BCFB2868446053
:1050F000E868844205D22968686B091DFFF79AFBAE
:1051000004E02968286B091DFFF794FBFFF777FF80
:10511000002803D1BDE87040FFF7DBBB70BD70B560
:1051200002460020002A1AD0FFF7BCFF164DE8689F
:1051300084182868001DFFF795FB28684460E8681C
:10514000844205D22968686B091DFFF773FB04E0F0
:105150002968286B091DFFF76DFBFFF750FF00283A
:1051600003D1BDE87040FFF7B4BB70BD10B5044675
:10517000FFF7B5FB0CB904480468E46AFFF7B7FB16
:10518000204610BDB0E20020A80000202DE9F0412B
:1051900006460D460027052D00D30425FFF79FFB8B
:1051A000DFF83484D8F80000864200D1002646B1EA
:1051B0003446606CA8422ED0854205D936B101270D
:1051C00004E0D8F80040F4E706B90127E26A90420B
:1051D00000D1E5626564C5F10501A161FF4D00EBF9
:1051E0008000616905EB8000814210D1201DFFF72E
:1051F00039FBE06AD8F81410884201D9C8F81400C5
:1052000000EB800005EB8000211DFFF705FB012F5F
:1052100001D1FFF75EFBBDE8F041FFF768BBEE4947
:10522000C869002802D0012048627047EB4A02E0BA
:105230004869401E4861486900EB800052F8200030
:105240000028F5D0486900EB800002EB800042683E
:105250005268426000F108039A4201D152684260EC
:105260004068C0680860704770B50546FFF737FBB7
:10527000D94E3068854200D10025C5B12C46201D8D
:10528000FFF7F0FAA06A18B104F11800FFF7EAFA84
:10529000D248211DB430FFF7BFFAFFF728FB002DDD
:1052A0000FD1B06928B1BDE87040FFF712BB346878
:1052B000E5E7B068012802D0BDE87040AFE7002004
:1052C000306070BD0021C54B4269B4339A4206D1AB
:1052D000806AA3F12802904201D000B9012108465A
:1052E000704770B50446002C25D0BB4D2868844219
:1052F00021D0FFF7F4FA2046FFF7E4FF012816D18A
:10530000201DFFF7AFFAE06A6969884200D9686139
:10531000B24900EB800001EB8000211DFFF77CFA11
:10532000E06A2968C96A884201D3FFF7D2FABDE86A
:105330007040FFF7DCBA70BD70B50446002520460A
:10534000FFF7C0FF012808D1A34EF06938B1A34888
:1053500004F118018C30FFF75FFA284670BDE06A4F
:105360003168C96A884201D3012500E00025201D6B
:10537000FFF778FAE06A7169884200D9706197494D
:1053800000EB800001EB8000211DFFF745FAE4E708
:1053900010B50446206BFFF70BFA2046BDE810401D
:1053A000FFF706BA70B58C4D6868002823D0FFF768
:1053B00079FE8A4EA036306858B10024FFF71FFEF0
:1053C000002C18D1FFF78BFA306820B1F068C46860
:1053D00002E00124F2E70024201DFFF743FAA86849
:1053E000401EA8606868401E6860FFF780FA20468B
:1053F000BDE87040CCE770BD784CFFF7D3FF206864
:105400000128FAD9FFF765FAF7E71FB500240094E1
:10541000019402942346802271A173480394FFF7FC
:105420001FFD012809D1FAF7A1FE6B480121816116
:10543000C460BDE81F40FFF738BA1FBD10B5FAF7CA
:1054400095FE654900208861BDE81040FFF740BA2D
:1054500010B5FFF744FA6048C468FFF748FA2046E1
:105460008FE65D48C06870475B488068704770B5DC
:105470000D46594C21681831FFF7DCF92068001DF2
:10548000FFF7F0F9681C0DD0E068284421684860F7
:10549000E16888420ED22168606B091DBDE870404A
:1054A000FFF7C8B92168BDE870404C48091DB43009
:1054B000FFF7B2B92168206B091DBDE87040FFF706
:1054C000B9B970B50168002902D0C068C46800E0AD
:1054D000002404F118000646FFF7C4F93E4DEA69BE
:1054E0005AB13E4831468C30FFF796F9E06A296898
:1054F000C96A884212D3012070BD201DFFF7B2F99E
:10550000E06A6969884200D96861344900EB80002B
:1055100001EB8000211DFFF77FF9E7E7002070BD58
:105520002D498A6A0260C9684160704770B50446B7
:105530000D46FFF7D4F92868411C0AD0264B216894
:105540009A6A914207D06168DA68914203D80124CF
:1055500010E000240EE06268D968891A814208D2FE
:10556000D968891A401A28602046FFF7D9FF00241D
:1055700000E00124FFF7BBF9204670BD1649012069
:105580004862704714480068704770B50446124D71
:10559000E06A2968C96A88422FD22868C06AC0F1C7
:1055A0000500A061E06A0D4E00EB8000616906EB2A
:1055B000800081421ED1201DFFF754F92868C06A7F
:1055C000E0626969884200D9686100EB800006EBFF
:1055D0008000211D0AE00000A8000020B0E20020A9
:1055E00049444C4500000000F9530008BDE87040F4
:1055F000FFF712B92868C06AE06270BD10B50446B2
:1056000000281BD0616CE06A884217D0201DFFF78C
:1056100029F9606CE062C0F10500A0610849E06A08
:105620004A69904200D94861064900EB800001EBCD
:105630008000211DBDE81040FFF7EEB8A1E5000095
:10564000A8000020B0E2002040EA01039B0703D03D
:1056500009E008C9121F08C0042AFAD203E011F8B1
:10566000013B00F8013B521EF9D27047D2B201E073
:1056700000F8012B491EFBD270470022F6E710B557
:1056800013460A4604461946FFF7F0FF204610BDB0
:1056900010B5044604E00B7800F8013B03B1491C47
:1056A000521EF8D2204610BD30B5054600200346F4
:1056B00000E05B1C934205D2EC5CC85C201A01D16F
:1056C000002CF6D130BD2DE9FE4F81EA030404F031
:1056D000004421F0004100944FF0000B23F0004300
:1056E00050EA01045ED052EA03045BD0C3F30A54CB
:1056F000C1F30A552C44A4F2F3340194A0FB0254E4
:10570000C1F3130141F48011C3F3130343F4801375
:1057100001FB024400FB034E840A970A44EA8154C9
:1057200047EA8357A4FB076802958D0A05FB0785A6
:105730004FEA932C04FB0C542705029D4FEA0658B0
:1057400047EA1637B5EB08056EEB070C870E920E8D
:1057500047EA811742EA8312A7FB0201B6EB0B016D
:1057600064EB00042B0D43EA0C335E1844EB1C5031
:10577000DA465146E7FB0201C5F313044FEA0B3347
:1057800043EA14534FEA0432019C43EA0603A4F1AE
:105790000C040294009CCDE900B400F098F803B02A
:1057A000BDE8F08F00200146F9E70EB5C10F80EA91
:1057B000E0700844CA07002140F233438DE80E0030
:1057C0000A460B4600F083F803B000BD0EB540F268
:1057D000334102910021CDE900110A460B4600F049
:1057E00076F803B000BDC1F30A5210B5C1F313013E
:1057F00040F2FF3341F480119A4201DA002010BDDB
:1058000040F233439A42A2F2334203DC524200F0A8
:1058100041F810BD904010BD30B5002904DB4FF0B9
:105820000044404264EB0101002B04DB4FF00044D4
:10583000524264EB03038B4208BF824230BD00003A
:1058400030B5002904DB4FF00044404264EB010115
:10585000002B04DB4FF00044524264EB03039942F7
:1058600008BF904230BD000030B50B460146002015
:105870002022012409E021FA02F59D4205D303FA12
:1058800002F5491B04FA02F52844151EA2F1010293
:10589000F1DC30BD202A04DB203A21FA02F000219D
:1058A000704721FA02F3D040C2F120029140084330
:1058B0001946704710B5002B08DA401C41F1000171
:1058C00092185B411A4301D120F0010010BD2DE96F
:1058D000F04D92469B4611B1B1FA81F202E0B0FA66
:1058E00080F22032904600F053F804460F4640EA1A
:1058F0000A0041EA0B0153465A46084313D01146A9
:1059000053EA010019D0C8F140025046FFF7C2FF28
:1059100005460E4650465946424600F039F80843BF
:1059200005D0012004E020463946BDE8F08D002076
:10593000054346EAE0762C4337430A986305E40AB8
:10594000A0EB08000022FD0A44EA47540A3002D5C1
:1059500000200146E9E7010510196941DDE9084524
:1059600000196941BDE8F04DA4E70000064C074D61
:1059700006E0E06840F0010394E80700984710341F
:10598000AC42F6D3FAF7B6FB786D0008986D0008C4
:10599000202A04DB203A00FA02F1002070479140EF
:1059A000C2F1200320FA03F319439040704700002E
:1059B0000FB4054B10B503A9044A029800F018F87B
:1059C00010BC5DF814FB00001B450008E00000203F
:1059D00002E008C8121F08C1002AFAD170477047B8
:1059E000002001E001C1121F002AFBD17047000016
:1059F0002DE9FF4F8BB09A460F460546002606E07C
:105A000025280BD052460D9990476D1C761C28789E
:105A10000028F5D10FB03046BDE8F08F0024A04635
:105A20000122604900E0044315F8013F203B02FADF
:105A300003F00842F7D128782E2817D115F8010F66
:105A400044F004042A280ED06FF02F022878A0F129
:105A5000300109290AD808EB880102EB410100EB6B
:105A600001086D1CF2E757F8048B6D1C2878692833
:105A70003ED006DC0028CDD063280BD0642804D1AA
:105A800036E0732810D075284BD052460D999047B8
:105A9000761C85E017F8040B8DF8000000208DF8C7
:105AA0000100E946012003E057F8049B4FF0FF3066
:105AB00061074FF0000401D40AE0641C44450DDA8C
:105AC0008442FADB19F804100029F6D106E0641CC0
:105AD0008442FCDB19F804100029F8D1264404E0C4
